{
  "address": "0x4b7992F03906F7bBE3d48E5Fb724f52c56cFb039",
  "abi": [
    {
      "anonymous": false,
      "inputs": [
        {
          "indexed": true,
          "internalType": "address",
          "name": "userAddress",
          "type": "address"
        },
        {
          "indexed": true,
          "internalType": "address",
          "name": "token",
          "type": "address"
        },
        {
          "indexed": false,
          "internalType": "uint256",
          "name": "amount",
          "type": "uint256"
        },
        {
          "indexed": false,
          "internalType": "uint256",
          "name": "lpAmount",
          "type": "uint256"
        },
        {
          "indexed": false,
          "internalType": "uint256",
          "name": "durationWeeks",
          "type": "uint256"
        },
        {
          "indexed": true,
          "internalType": "uint256",
          "name": "bondingShareId",
          "type": "uint256"
        },
        {
          "indexed": false,
          "internalType": "uint256",
          "name": "getId",
          "type": "uint256"
        },
        {
          "indexed": false,
          "internalType": "uint256",
          "name": "setId",
          "type": "uint256"
        }
      ],
      "name": "Deposit",
      "type": "event"
    },
    {
      "inputs": [
        {
          "internalType": "address",
          "name": "token",
          "type": "address"
        },
        {
          "internalType": "uint256",
          "name": "amount",
          "type": "uint256"
        },
        {
          "internalType": "uint256",
          "name": "durationWeeks",
          "type": "uint256"
        },
        {
          "internalType": "uint256",
          "name": "getId",
          "type": "uint256"
        },
        {
          "internalType": "uint256",
          "name": "setId",
          "type": "uint256"
        }
      ],
      "name": "deposit",
      "outputs": [
        {
          "internalType": "string",
          "name": "_eventName",
          "type": "string"
        },
        {
          "internalType": "bytes",
          "name": "_eventParam",
          "type": "bytes"
        }
      ],
      "stateMutability": "payable",
      "type": "function"
    },
    {
      "inputs": [],
      "name": "name",
      "outputs": [
        {
          "internalType": "string",
          "name": "",
          "type": "string"
        }
      ],
      "stateMutability": "view",
      "type": "function"
    }
  ],
  "transactionHash": "0x7410e62ef4ec0276295b1c40d6750db1090e240a95474264c419e134152db2c7",
  "args": [],
  "solcInputHash": "6df918a279920440a75180d91202d603",
  "bytecode": "0x608060405234801561001057600080fd5b50610dc8806100206000396000f3fe6080604052600436106100295760003560e01c806306fdde031461002e5780636893680914610059575b600080fd5b34801561003a57600080fd5b5061004361007a565b6040516100509190610c86565b60405180910390f35b61006c610067366004610b2c565b6100a1565b604051610050929190610c99565b6040518060400160405280600b81526020016a55626971756974792d763160a81b81525081565b6060806000734da97a8b831c345dbe6d16ff7432df2b7b776d986001600160a01b031663bc3ea0186040518163ffffffff1660e01b8152600401602060405180830381600087803b1580156100f557600080fd5b505af1158015610109573d6000803e3d6000fd5b505050506040513d601f19601f8201168201806040525081019061012d9190610b10565b90506000734da97a8b831c345dbe6d16ff7432df2b7b776d986001600160a01b031663d3815fb96040518163ffffffff1660e01b8152600401602060405180830381600087803b15801561018057600080fd5b505af1158015610194573d6000803e3d6000fd5b505050506040513d601f19601f820116820180604052508101906101b89190610b10565b90506001600160a01b038916736b175474e89094c44da98b954eedeac495271d0f148061020157506001600160a01b03891673a0b86991c6218b36c1d19d4a2e9eb0ce3606eb48145b8061022857506001600160a01b03891673dac17f958d2ee523a2206206994597c13d831ec7145b806102445750816001600160a01b0316896001600160a01b0316145b8061026b57506001600160a01b038916736c3f90f043a72fa612cbac8115ee7e52bde6e490145b806102875750806001600160a01b0316896001600160a01b0316145b6102ac5760405162461bcd60e51b81526004016102a390610cc7565b60405180910390fd5b60006102b8878a6107ce565b905060006000198214156102d2576102cf8b61086a565b91505b6001600160a01b038b16736b175474e89094c44da98b954eedeac495271d0f148061031957506001600160a01b038b1673a0b86991c6218b36c1d19d4a2e9eb0ce3606eb48145b8061034057506001600160a01b038b1673dac17f958d2ee523a2206206994597c13d831ec7145b156104695761034d610ad4565b6001600160a01b038c16736b175474e89094c44da98b954eedeac495271d0f141561038157828160005b60200201526103dc565b6001600160a01b038c1673a0b86991c6218b36c1d19d4a2e9eb0ce3606eb4814156103af5782816001610377565b6001600160a01b038c1673dac17f958d2ee523a2206206994597c13d831ec714156103dc57604081018390525b6103fb8c73bebc44782c7db0a1a60cb6fe97d0b483032ff1c78561090f565b604051634515cef360e01b815273bebc44782c7db0a1a60cb6fe97d0b483032ff1c790634515cef390610435908490600090600401610c4e565b600060405180830381600087803b15801561044f57600080fd5b505af1158015610463573d6000803e3d6000fd5b50505050505b6001600160a01b038b16736b175474e89094c44da98b954eedeac495271d0f14806104b057506001600160a01b038b1673a0b86991c6218b36c1d19d4a2e9eb0ce3606eb48145b806104d757506001600160a01b038b1673dac17f958d2ee523a2206206994597c13d831ec7145b806104f35750836001600160a01b03168b6001600160a01b0316145b8061051a57506001600160a01b038b16736c3f90f043a72fa612cbac8115ee7e52bde6e490145b1561063157610527610af2565b8b60006001600160a01b03808316908816141561054857508382528361059f565b6001600160a01b038e16736c3f90f043a72fa612cbac8115ee7e52bde6e4901415610574575083610597565b736c3f90f043a72fa612cbac8115ee7e52bde6e49091506105948261086a565b90505b602083018190525b6105aa82878361090f565b604051630b4c7e4d60e01b81526001600160a01b03871690630b4c7e4d906105d9908690600090600401610c16565b602060405180830381600087803b1580156105f357600080fd5b505af1158015610607573d6000803e3d6000fd5b505050506040513d601f19601f8201168201806040525081019061062b9190610b6f565b93505050505b826001600160a01b03168b6001600160a01b0316141561064e5750805b6000734da97a8b831c345dbe6d16ff7432df2b7b776d986001600160a01b031663de71c1db6040518163ffffffff1660e01b8152600401602060405180830381600087803b15801561069f57600080fd5b505af11580156106b3573d6000803e3d6000fd5b505050506040513d601f19601f820116820180604052508101906106d79190610b10565b90506106e484828461090f565b604051631c57762b60e31b81526000906001600160a01b0383169063e2bbb158906107159086908f90600401610d24565b602060405180830381600087803b15801561072f57600080fd5b505af1158015610743573d6000803e3d6000fd5b505050506040513d601f19601f820116820180604052508101906107679190610b6f565b90506107738982610a57565b604051806080016040528060488152602001610d4b604891399750308d8d858e858f8f6040516020016107ad989796959493929190610bd2565b60405160208183030381529060405296505050505050509550959350505050565b6000821561086157738a5419cfc711b2343c17a6abf4b2bafabb06957f6001600160a01b031663a9c70eaa846040518263ffffffff1660e01b815260040180828152602001915050602060405180830381600087803b15801561083057600080fd5b505af1158015610844573d6000803e3d6000fd5b505050506040513d602081101561085a57600080fd5b5051610863565b815b9392505050565b60006001600160a01b03821673eeeeeeeeeeeeeeeeeeeeeeeeeeeeeeeeeeeeeeee1461090757604080516370a0823160e01b815230600482015290516001600160a01b038416916370a08231916024808301926020929190829003018186803b1580156108d657600080fd5b505afa1580156108ea573d6000803e3d6000fd5b505050506040513d602081101561090057600080fd5b5051610909565b475b92915050565b826001600160a01b031663095ea7b383836040518363ffffffff1660e01b815260040180836001600160a01b0316815260200182815260200192505050600060405180830381600087803b15801561096657600080fd5b505af1925050508015610977575060015b610a52576040805163095ea7b360e01b81526001600160a01b03848116600483015260006024830181905292519086169263095ea7b3926044808201939182900301818387803b1580156109ca57600080fd5b505af11580156109de573d6000803e3d6000fd5b50505050826001600160a01b031663095ea7b383836040518363ffffffff1660e01b815260040180836001600160a01b0316815260200182815260200192505050600060405180830381600087803b158015610a3957600080fd5b505af1158015610a4d573d6000803e3d6000fd5b505050505b505050565b8115610ad05760408051631878f25160e21b815260048101849052602481018390529051738a5419cfc711b2343c17a6abf4b2bafabb06957f916361e3c94491604480830192600092919082900301818387803b158015610ab757600080fd5b505af1158015610acb573d6000803e3d6000fd5b505050505b5050565b60405180606001604052806003906020820280368337509192915050565b60405180604001604052806002906020820280368337509192915050565b600060208284031215610b21578081fd5b815161086381610d32565b600080600080600060a08688031215610b43578081fd5b8535610b4e81610d32565b97602087013597506040870135966060810135965060800135945092505050565b600060208284031215610b80578081fd5b5051919050565b60008151808452815b81811015610bac57602081850181015186830182015201610b90565b81811115610bbd5782602083870101525b50601f01601f19169290920160200192915050565b6001600160a01b03988916815296909716602087015260408601949094526060850192909252608084015260a083015260c082015260e08101919091526101000190565b60608101818460005b6002811015610c3e578151835260209283019290910190600101610c1f565b5050508260408301529392505050565b60808101818460005b6003811015610c76578151835260209283019290910190600101610c57565b5050508260608301529392505050565b6000602082526108636020830184610b87565b600060408252610cac6040830185610b87565b8281036020840152610cbe8185610b87565b95945050505050565b6020808252603e908201527f496e76616c696420746f6b656e3a206d757374206265204441492c205553444360408201527f2c20555344542c207541442c2033435256206f7220754144334352562d660000606082015260800190565b918252602082015260400190565b6001600160a01b0381168114610d4757600080fd5b5056fe4465706f73697428616464726573732c616464726573732c75696e743235362c75696e743235362c75696e743235362c75696e743235362c75696e743235362c75696e7432353629a26469706673582212207ddc6b60273d4a75a88e227196f3eeaec84fc405b3bdda568ca1cf40289179d464736f6c63430007060033",
  "devdoc": {
    "kind": "dev",
    "methods": {
      "deposit(address,uint256,uint256,uint256,uint256)": {
        "details": "Deposit into Ubiquity protocol",
        "params": {
          "amount": "Amount of tokens to deposit (For max: `uint256(-1)`)",
          "durationWeeks": "Duration in weeks tokens will be locked (4-208)",
          "getId": "ID to retrieve amt.",
          "setId": "ID stores the amount of tokens deposited.",
          "token": "Token deposited : DAI, USDC, USDT, 3CRV, uAD or uAD3CRV-f"
        }
      }
    },
    "version": 1
  },
  "userdoc": {
    "kind": "user",
    "methods": {
      "deposit(address,uint256,uint256,uint256,uint256)": {
        "notice": "3POOL (DAI / USDC / USDT) => METAPOOL (3CRV / uAD) => uAD3CRV-f => Ubiquity BondingShareSTEP 1 : 3POOL (DAI / USDC / USDT) => 3CRVSTEP 2 : METAPOOL(3CRV / UAD) => uAD3CRV-fSTEP 3 : uAD3CRV-f => Ubiquity BondingShare"
      }
    },
    "version": 1
  },
  "storageLayout": {
    "storage": [],
    "types": null
  }
}