{
  "address": "0x636BeA69422e087eA87Ae6A98300065C11826b2C",
  "abi": [
    {
      "inputs": [],
      "name": "ayt",
      "outputs": [
        {
          "internalType": "bool",
          "name": "",
          "type": "bool"
        }
      ],
      "stateMutability": "pure",
      "type": "function"
    },
    {
      "inputs": [],
      "name": "getUbiquityAddresses",
      "outputs": [
        {
          "components": [
            {
              "internalType": "address",
              "name": "ubiquityManagerAddress",
              "type": "address"
            },
            {
              "internalType": "address",
              "name": "masterChefAddress",
              "type": "address"
            },
            {
              "internalType": "address",
              "name": "twapOracleAddress",
              "type": "address"
            },
            {
              "internalType": "address",
              "name": "uadAddress",
              "type": "address"
            },
            {
              "internalType": "address",
              "name": "uarAddress",
              "type": "address"
            },
            {
              "internalType": "address",
              "name": "udebtAddress",
              "type": "address"
            },
            {
              "internalType": "address",
              "name": "ubqAddress",
              "type": "address"
            },
            {
              "internalType": "address",
              "name": "cr3Address",
              "type": "address"
            },
            {
              "internalType": "address",
              "name": "uadcrv3Address",
              "type": "address"
            },
            {
              "internalType": "address",
              "name": "bondingShareAddress",
              "type": "address"
            },
            {
              "internalType": "address",
              "name": "dsaResolverAddress",
              "type": "address"
            },
            {
              "internalType": "address",
              "name": "dsaConnectorAddress",
              "type": "address"
            }
          ],
          "internalType": "struct Helpers.UbiquityAddresses",
          "name": "addresses",
          "type": "tuple"
        }
      ],
      "stateMutability": "view",
      "type": "function"
    },
    {
      "inputs": [],
      "name": "getUbiquityDatas",
      "outputs": [
        {
          "components": [
            {
              "internalType": "uint256",
              "name": "twapPrice",
              "type": "uint256"
            },
            {
              "internalType": "uint256",
              "name": "uadTotalSupply",
              "type": "uint256"
            },
            {
              "internalType": "uint256",
              "name": "uarTotalSupply",
              "type": "uint256"
            },
            {
              "internalType": "uint256",
              "name": "udebtTotalSupply",
              "type": "uint256"
            },
            {
              "internalType": "uint256",
              "name": "ubqTotalSupply",
              "type": "uint256"
            },
            {
              "internalType": "uint256",
              "name": "uadcrv3TotalSupply",
              "type": "uint256"
            },
            {
              "internalType": "uint256",
              "name": "bondingSharesTotalSupply",
              "type": "uint256"
            },
            {
              "internalType": "uint256",
              "name": "lpTotalSupply",
              "type": "uint256"
            }
          ],
          "internalType": "struct Helpers.UbiquityDatas",
          "name": "datas",
          "type": "tuple"
        }
      ],
      "stateMutability": "view",
      "type": "function"
    },
    {
      "inputs": [
        {
          "internalType": "address",
          "name": "user",
          "type": "address"
        }
      ],
      "name": "getUbiquityInventory",
      "outputs": [
        {
          "components": [
            {
              "internalType": "uint256",
              "name": "uadBalance",
              "type": "uint256"
            },
            {
              "internalType": "uint256",
              "name": "uarBalance",
              "type": "uint256"
            },
            {
              "internalType": "uint256",
              "name": "udebtBalance",
              "type": "uint256"
            },
            {
              "internalType": "uint256",
              "name": "ubqBalance",
              "type": "uint256"
            },
            {
              "internalType": "uint256",
              "name": "crv3Balance",
              "type": "uint256"
            },
            {
              "internalType": "uint256",
              "name": "uad3crvBalance",
              "type": "uint256"
            },
            {
              "internalType": "uint256",
              "name": "ubqRewards",
              "type": "uint256"
            },
            {
              "internalType": "uint256",
              "name": "bondingSharesBalance",
              "type": "uint256"
            },
            {
              "internalType": "uint256",
              "name": "lpBalance",
              "type": "uint256"
            },
            {
              "internalType": "uint256",
              "name": "bondBalance",
              "type": "uint256"
            },
            {
              "internalType": "uint256",
              "name": "ubqPendingBalance",
              "type": "uint256"
            }
          ],
          "internalType": "struct Helpers.UbiquityInventory",
          "name": "inventory",
          "type": "tuple"
        }
      ],
      "stateMutability": "view",
      "type": "function"
    },
    {
      "inputs": [],
      "name": "name",
      "outputs": [
        {
          "internalType": "string",
          "name": "",
          "type": "string"
        }
      ],
      "stateMutability": "view",
      "type": "function"
    }
  ],
  "transactionHash": "0xebc258eec0bed138cefd4469101e4dd8d71fbfa310463af8c242bc1d66f28e4e",
  "args": [],
  "solcInputHash": "95c565fb7827d64bec86c49277d31801",
  "bytecode": "0x608060405234801561001057600080fd5b50611350806100206000396000f3fe608060405234801561001057600080fd5b50600436106100575760003560e01c806306fdde031461005c57806307b5ca351461007a57806322acadfc1461008f578063471f7a01146100af5780639dc9fe0e146100c4575b600080fd5b6100646100d9565b60405161007191906110b9565b60405180910390f35b61008261010b565b604051610071919061110c565b6100a261009d366004610f19565b610217565b6040516100719190611258565b6100b7610505565b60405161007191906111ff565b6100cc6108fa565b60405161007191906110ae565b6040518060400160405280601681526020017555626971756974792d5265736f6c7665722d76302e3160501b81525081565b610113610e16565b734da97a8b831c345dbe6d16ff7432df2b7b776d9881526101326108ff565b6001600160a01b0316602082015261014861098b565b6001600160a01b0316604082015261015e6109da565b6001600160a01b03166060820152610174610a29565b6001600160a01b0316608082015261018a610a78565b6001600160a01b031660a08201526101a0610ac7565b6001600160a01b031660c08201526101b6610b16565b6001600160a01b031660e08201526101cc610b65565b6001600160a01b03166101008201526101e3610bb4565b6001600160a01b03166101208201523061014082015273164b772671a7c2b16fc965ce74583d361075b3b561016082015290565b61021f610e7a565b6102276109da565b6001600160a01b03166370a08231836040518263ffffffff1660e01b8152600401610252919061109a565b60206040518083038186803b15801561026a57600080fd5b505afa15801561027e573d6000803e3d6000fd5b505050506040513d601f19601f820116820180604052508101906102a29190611075565b81526102ac610a29565b6001600160a01b03166370a08231836040518263ffffffff1660e01b81526004016102d7919061109a565b60206040518083038186803b1580156102ef57600080fd5b505afa158015610303573d6000803e3d6000fd5b505050506040513d601f19601f820116820180604052508101906103279190611075565b6020820152610334610ac7565b6001600160a01b03166370a08231836040518263ffffffff1660e01b815260040161035f919061109a565b60206040518083038186803b15801561037757600080fd5b505afa15801561038b573d6000803e3d6000fd5b505050506040513d601f19601f820116820180604052508101906103af9190611075565b60608201526103bc610b16565b6001600160a01b03166370a08231836040518263ffffffff1660e01b81526004016103e7919061109a565b60206040518083038186803b1580156103ff57600080fd5b505afa158015610413573d6000803e3d6000fd5b505050506040513d601f19601f820116820180604052508101906104379190611075565b6080820152610444610b65565b6001600160a01b03166370a08231836040518263ffffffff1660e01b815260040161046f919061109a565b60206040518083038186803b15801561048757600080fd5b505afa15801561049b573d6000803e3d6000fd5b505050506040513d601f19601f820116820180604052508101906104bf9190611075565b60a08201526104cd82610c03565b60e08201526104db82610c03565b6101008201526104ea82610ccb565b516101208201526104fa82610d5a565b610140820152919050565b61050d610ed4565b61051561098b565b6001600160a01b031663283583c661052b61098b565b6001600160a01b0316630dfe16816040518163ffffffff1660e01b815260040160206040518083038186803b15801561056357600080fd5b505afa158015610577573d6000803e3d6000fd5b505050506040513d601f19601f8201168201806040525081019061059b9190610f3c565b6040518263ffffffff1660e01b81526004016105b7919061109a565b60206040518083038186803b1580156105cf57600080fd5b505afa1580156105e3573d6000803e3d6000fd5b505050506040513d601f19601f820116820180604052508101906106079190611075565b81526106116109da565b6001600160a01b03166318160ddd6040518163ffffffff1660e01b815260040160206040518083038186803b15801561064957600080fd5b505afa15801561065d573d6000803e3d6000fd5b505050506040513d601f19601f820116820180604052508101906106819190611075565b602082015261068e610a29565b6001600160a01b03166318160ddd6040518163ffffffff1660e01b815260040160206040518083038186803b1580156106c657600080fd5b505afa1580156106da573d6000803e3d6000fd5b505050506040513d601f19601f820116820180604052508101906106fe9190611075565b604082015261070b610ac7565b6001600160a01b03166318160ddd6040518163ffffffff1660e01b815260040160206040518083038186803b15801561074357600080fd5b505afa158015610757573d6000803e3d6000fd5b505050506040513d601f19601f8201168201806040525081019061077b9190611075565b6080820152610788610b65565b6001600160a01b03166318160ddd6040518163ffffffff1660e01b815260040160206040518083038186803b1580156107c057600080fd5b505afa1580156107d4573d6000803e3d6000fd5b505050506040513d601f19601f820116820180604052508101906107f89190611075565b60a0820152610805610bb4565b6001600160a01b03166318160ddd6040518163ffffffff1660e01b815260040160206040518083038186803b15801561083d57600080fd5b505afa158015610851573d6000803e3d6000fd5b505050506040513d601f19601f820116820180604052508101906108759190611075565b60c0820152610882610bb4565b6001600160a01b031663132c4feb6040518163ffffffff1660e01b815260040160206040518083038186803b1580156108ba57600080fd5b505afa1580156108ce573d6000803e3d6000fd5b505050506040513d601f19601f820116820180604052508101906108f29190611075565b60e082015290565b600190565b6000734da97a8b831c345dbe6d16ff7432df2b7b776d986001600160a01b031663221e2e606040518163ffffffff1660e01b815260040160206040518083038186803b15801561094e57600080fd5b505afa158015610962573d6000803e3d6000fd5b505050506040513d601f19601f820116820180604052508101906109869190610f3c565b905090565b6000734da97a8b831c345dbe6d16ff7432df2b7b776d986001600160a01b0316638fe636836040518163ffffffff1660e01b815260040160206040518083038186803b15801561094e57600080fd5b6000734da97a8b831c345dbe6d16ff7432df2b7b776d986001600160a01b031663bc3ea0186040518163ffffffff1660e01b815260040160206040518083038186803b15801561094e57600080fd5b6000734da97a8b831c345dbe6d16ff7432df2b7b776d986001600160a01b0316633ae3d9a46040518163ffffffff1660e01b815260040160206040518083038186803b15801561094e57600080fd5b6000734da97a8b831c345dbe6d16ff7432df2b7b776d986001600160a01b03166356593ea36040518163ffffffff1660e01b815260040160206040518083038186803b15801561094e57600080fd5b6000734da97a8b831c345dbe6d16ff7432df2b7b776d986001600160a01b031663b42165d06040518163ffffffff1660e01b815260040160206040518083038186803b15801561094e57600080fd5b6000734da97a8b831c345dbe6d16ff7432df2b7b776d986001600160a01b031663017df3276040518163ffffffff1660e01b815260040160206040518083038186803b15801561094e57600080fd5b6000734da97a8b831c345dbe6d16ff7432df2b7b776d986001600160a01b031663d3815fb96040518163ffffffff1660e01b815260040160206040518083038186803b15801561094e57600080fd5b6000734da97a8b831c345dbe6d16ff7432df2b7b776d986001600160a01b031663c431e83c6040518163ffffffff1660e01b815260040160206040518083038186803b15801561094e57600080fd5b600080610c0f83610ccb565b905060005b8151811015610cc457610c25610bb4565b6001600160a01b031663d8fe7642838381518110610c3f57fe5b60200260200101516040518263ffffffff1660e01b8152600401610c6391906112d5565b60c06040518083038186803b158015610c7b57600080fd5b505afa158015610c8f573d6000803e3d6000fd5b505050506040513d601f19601f82011682018060405250810190610cb39190610ff9565b60a001519290920191600101610c14565b5050919050565b6060610cd5610bb4565b6001600160a01b0316637b48c3fd836040518263ffffffff1660e01b8152600401610d00919061109a565b60006040518083038186803b158015610d1857600080fd5b505afa158015610d2c573d6000803e3d6000fd5b505050506040513d6000823e601f3d908101601f19168201604052610d549190810190610f58565b92915050565b600080610d6683610ccb565b905060005b8151811015610cc457610d7c6108ff565b6001600160a01b0316637eb751c7838381518110610d9657fe5b60200260200101516040518263ffffffff1660e01b8152600401610dba91906112d5565b60206040518083038186803b158015610dd257600080fd5b505afa158015610de6573d6000803e3d6000fd5b505050506040513d601f19601f82011682018060405250810190610e0a9190611075565b90920191600101610d6b565b6040805161018081018252600080825260208201819052918101829052606081018290526080810182905260a0810182905260c0810182905260e0810182905261010081018290526101208101829052610140810182905261016081019190915290565b60405180610160016040528060008152602001600081526020016000815260200160008152602001600081526020016000815260200160008152602001600081526020016000815260200160008152602001600081525090565b60405180610100016040528060008152602001600081526020016000815260200160008152602001600081526020016000815260200160008152602001600081525090565b600060208284031215610f2a578081fd5b8135610f3581611302565b9392505050565b600060208284031215610f4d578081fd5b8151610f3581611302565b60006020808385031215610f6a578182fd5b825167ffffffffffffffff80821115610f81578384fd5b818501915085601f830112610f94578384fd5b815181811115610fa057fe5b8381029150610fb08483016112de565b8181528481019084860184860187018a1015610fca578788fd5b8795505b83861015610fec578051835260019590950194918601918601610fce565b5098975050505050505050565b600060c0828403121561100a578081fd5b60405160c0810181811067ffffffffffffffff8211171561102757fe5b604052825161103581611302565b808252506020830151602082015260408301516040820152606083015160608201526080830151608082015260a083015160a08201528091505092915050565b600060208284031215611086578081fd5b5051919050565b6001600160a01b03169052565b6001600160a01b0391909116815260200190565b901515815260200190565b6000602080835283518082850152825b818110156110e5578581018301518582016040015282016110c9565b818111156110f65783604083870101525b50601f01601f1916929092016040019392505050565b60006101808201905061112082845161108d565b6020830151611132602084018261108d565b506040830151611145604084018261108d565b506060830151611158606084018261108d565b50608083015161116b608084018261108d565b5060a083015161117e60a084018261108d565b5060c083015161119160c084018261108d565b5060e08301516111a460e084018261108d565b50610100808401516111b88285018261108d565b5050610120808401516111cd8285018261108d565b5050610140808401516111e28285018261108d565b5050610160808401516111f78285018261108d565b505092915050565b600061010082019050825182526020830151602083015260408301516040830152606083015160608301526080830151608083015260a083015160a083015260c083015160c083015260e083015160e083015292915050565b600061016082019050825182526020830151602083015260408301516040830152606083015160608301526080830151608083015260a083015160a083015260c083015160c083015260e083015160e083015261010080840151818401525061012080840151818401525061014080840151818401525092915050565b90815260200190565b60405181810167ffffffffffffffff811182821017156112fa57fe5b604052919050565b6001600160a01b038116811461131757600080fd5b5056fea2646970667358221220c6bd93c72b4166101ff3012bdc997db365754051ac0d811669711276932002b264736f6c63430007060033",
  "devdoc": {
    "kind": "dev",
    "methods": {},
    "version": 1
  },
  "userdoc": {
    "kind": "user",
    "methods": {},
    "version": 1
  },
  "storageLayout": {
    "storage": [],
    "types": null
  }
}