{
  "address": "0x05B040eB751618970eC9235AdF977190359DC567",
  "abi": [
    {
      "inputs": [],
      "name": "getUbiquityAddresses",
      "outputs": [
        {
          "components": [
            {
              "internalType": "address",
              "name": "ubiquityManagerAddress",
              "type": "address"
            },
            {
              "internalType": "address",
              "name": "masterChefAddress",
              "type": "address"
            },
            {
              "internalType": "address",
              "name": "twapOracleAddress",
              "type": "address"
            },
            {
              "internalType": "address",
              "name": "uadAddress",
              "type": "address"
            },
            {
              "internalType": "address",
              "name": "uarAddress",
              "type": "address"
            },
            {
              "internalType": "address",
              "name": "udebtAddress",
              "type": "address"
            },
            {
              "internalType": "address",
              "name": "ubqAddress",
              "type": "address"
            },
            {
              "internalType": "address",
              "name": "cr3Address",
              "type": "address"
            },
            {
              "internalType": "address",
              "name": "uadcrv3Address",
              "type": "address"
            },
            {
              "internalType": "address",
              "name": "bondingShareAddress",
              "type": "address"
            },
            {
              "internalType": "address",
              "name": "dsaResolverAddress",
              "type": "address"
            },
            {
              "internalType": "address",
              "name": "dsaConnectorAddress",
              "type": "address"
            }
          ],
          "internalType": "struct Helpers.UbiquityAddresses",
          "name": "addresses",
          "type": "tuple"
        }
      ],
      "stateMutability": "view",
      "type": "function"
    },
    {
      "inputs": [],
      "name": "getUbiquityDatas",
      "outputs": [
        {
          "components": [
            {
              "internalType": "uint256",
              "name": "twapPrice",
              "type": "uint256"
            },
            {
              "internalType": "uint256",
              "name": "uadTotalSupply",
              "type": "uint256"
            },
            {
              "internalType": "uint256",
              "name": "uarTotalSupply",
              "type": "uint256"
            },
            {
              "internalType": "uint256",
              "name": "udebtTotalSupply",
              "type": "uint256"
            },
            {
              "internalType": "uint256",
              "name": "ubqTotalSupply",
              "type": "uint256"
            },
            {
              "internalType": "uint256",
              "name": "uadcrv3TotalSupply",
              "type": "uint256"
            },
            {
              "internalType": "uint256",
              "name": "bondingSharesTotalSupply",
              "type": "uint256"
            },
            {
              "internalType": "uint256",
              "name": "lpTotalSupply",
              "type": "uint256"
            }
          ],
          "internalType": "struct Helpers.UbiquityDatas",
          "name": "datas",
          "type": "tuple"
        }
      ],
      "stateMutability": "view",
      "type": "function"
    },
    {
      "inputs": [
        {
          "internalType": "address",
          "name": "user",
          "type": "address"
        }
      ],
      "name": "getUbiquityInventory",
      "outputs": [
        {
          "components": [
            {
              "internalType": "uint256",
              "name": "uadBalance",
              "type": "uint256"
            },
            {
              "internalType": "uint256",
              "name": "uarBalance",
              "type": "uint256"
            },
            {
              "internalType": "uint256",
              "name": "udebtBalance",
              "type": "uint256"
            },
            {
              "internalType": "uint256",
              "name": "ubqBalance",
              "type": "uint256"
            },
            {
              "internalType": "uint256",
              "name": "crv3Balance",
              "type": "uint256"
            },
            {
              "internalType": "uint256",
              "name": "uad3crvBalance",
              "type": "uint256"
            },
            {
              "internalType": "uint256",
              "name": "ubqRewards",
              "type": "uint256"
            },
            {
              "internalType": "uint256",
              "name": "bondingSharesBalance",
              "type": "uint256"
            },
            {
              "internalType": "uint256",
              "name": "lpBalance",
              "type": "uint256"
            },
            {
              "internalType": "uint256",
              "name": "bondBalance",
              "type": "uint256"
            },
            {
              "internalType": "uint256",
              "name": "ubqPendingBalance",
              "type": "uint256"
            }
          ],
          "internalType": "struct Helpers.UbiquityInventory",
          "name": "inventory",
          "type": "tuple"
        }
      ],
      "stateMutability": "view",
      "type": "function"
    },
    {
      "inputs": [],
      "name": "name",
      "outputs": [
        {
          "internalType": "string",
          "name": "",
          "type": "string"
        }
      ],
      "stateMutability": "view",
      "type": "function"
    }
  ],
  "transactionHash": "0xfe6f3ab3cf510b5c01a37f02ef093d8f765748cafbfe980cb18858d07f714549",
  "args": [],
  "solcInputHash": "257afda2d0929c3752983d9f472a8524",
  "bytecode": "0x608060405234801561001057600080fd5b50611e51806100206000396000f3fe608060405234801561001057600080fd5b506004361061004c5760003560e01c806306fdde031461005157806307b5ca351461006f57806322acadfc1461008d578063471f7a01146100bd575b600080fd5b6100596100db565b6040516100669190611b8a565b60405180910390f35b610077610114565b6040516100849190611bac565b60405180910390f35b6100a760048036038101906100a2919061179c565b61042a565b6040516100b49190611be4565b60405180910390f35b6100c5610780565b6040516100d29190611bc8565b60405180910390f35b6040518060400160405280601681526020017f55626971756974792d5265736f6c7665722d76302e310000000000000000000081525081565b61011c611423565b734da97a8b831c345dbe6d16ff7432df2b7b776d98816000019073ffffffffffffffffffffffffffffffffffffffff16908173ffffffffffffffffffffffffffffffffffffffff1681525050610170610bfc565b816020019073ffffffffffffffffffffffffffffffffffffffff16908173ffffffffffffffffffffffffffffffffffffffff16815250506101af610c95565b816040019073ffffffffffffffffffffffffffffffffffffffff16908173ffffffffffffffffffffffffffffffffffffffff16815250506101ee610d2e565b816060019073ffffffffffffffffffffffffffffffffffffffff16908173ffffffffffffffffffffffffffffffffffffffff168152505061022d610dc7565b816080019073ffffffffffffffffffffffffffffffffffffffff16908173ffffffffffffffffffffffffffffffffffffffff168152505061026c610e60565b8160a0019073ffffffffffffffffffffffffffffffffffffffff16908173ffffffffffffffffffffffffffffffffffffffff16815250506102ab610ef9565b8160c0019073ffffffffffffffffffffffffffffffffffffffff16908173ffffffffffffffffffffffffffffffffffffffff16815250506102ea610f92565b8160e0019073ffffffffffffffffffffffffffffffffffffffff16908173ffffffffffffffffffffffffffffffffffffffff168152505061032961102b565b81610100019073ffffffffffffffffffffffffffffffffffffffff16908173ffffffffffffffffffffffffffffffffffffffff16815250506103696110c4565b81610120019073ffffffffffffffffffffffffffffffffffffffff16908173ffffffffffffffffffffffffffffffffffffffff16815250503081610140019073ffffffffffffffffffffffffffffffffffffffff16908173ffffffffffffffffffffffffffffffffffffffff1681525050738ec066d75d665616a94f2eccdbe49b54eaeefc7881610160019073ffffffffffffffffffffffffffffffffffffffff16908173ffffffffffffffffffffffffffffffffffffffff168152505090565b61043261158c565b61043a610d2e565b73ffffffffffffffffffffffffffffffffffffffff166370a08231836040518263ffffffff1660e01b81526004016104729190611b6f565b60206040518083038186803b15801561048a57600080fd5b505afa15801561049e573d6000803e3d6000fd5b505050506040513d601f19601f820116820180604052508101906104c29190611858565b8160000181815250506104d3610dc7565b73ffffffffffffffffffffffffffffffffffffffff166370a08231836040518263ffffffff1660e01b815260040161050b9190611b6f565b60206040518083038186803b15801561052357600080fd5b505afa158015610537573d6000803e3d6000fd5b505050506040513d601f19601f8201168201806040525081019061055b9190611858565b81602001818152505061056c610ef9565b73ffffffffffffffffffffffffffffffffffffffff166370a08231836040518263ffffffff1660e01b81526004016105a49190611b6f565b60206040518083038186803b1580156105bc57600080fd5b505afa1580156105d0573d6000803e3d6000fd5b505050506040513d601f19601f820116820180604052508101906105f49190611858565b816060018181525050610605610f92565b73ffffffffffffffffffffffffffffffffffffffff166370a08231836040518263ffffffff1660e01b815260040161063d9190611b6f565b60206040518083038186803b15801561065557600080fd5b505afa158015610669573d6000803e3d6000fd5b505050506040513d601f19601f8201168201806040525081019061068d9190611858565b81608001818152505061069e61102b565b73ffffffffffffffffffffffffffffffffffffffff166370a08231836040518263ffffffff1660e01b81526004016106d69190611b6f565b60206040518083038186803b1580156106ee57600080fd5b505afa158015610702573d6000803e3d6000fd5b505050506040513d601f19601f820116820180604052508101906107269190611858565b8160a00181815250506107388261115d565b8160e001818152505061074a8261115d565b8161010001818152505061075d82611273565b518161012001818152505061077182611311565b81610140018181525050919050565b6107886115e6565b610790610c95565b73ffffffffffffffffffffffffffffffffffffffff1663283583c66107b3610c95565b73ffffffffffffffffffffffffffffffffffffffff16630dfe16816040518163ffffffff1660e01b815260040160206040518083038186803b1580156107f857600080fd5b505afa15801561080c573d6000803e3d6000fd5b505050506040513d601f19601f8201168201806040525081019061083091906117c5565b6040518263ffffffff1660e01b815260040161084c9190611b6f565b60206040518083038186803b15801561086457600080fd5b505afa158015610878573d6000803e3d6000fd5b505050506040513d601f19601f8201168201806040525081019061089c9190611858565b8160000181815250506108ad610d2e565b73ffffffffffffffffffffffffffffffffffffffff166318160ddd6040518163ffffffff1660e01b815260040160206040518083038186803b1580156108f257600080fd5b505afa158015610906573d6000803e3d6000fd5b505050506040513d601f19601f8201168201806040525081019061092a9190611858565b81602001818152505061093b610dc7565b73ffffffffffffffffffffffffffffffffffffffff166318160ddd6040518163ffffffff1660e01b815260040160206040518083038186803b15801561098057600080fd5b505afa158015610994573d6000803e3d6000fd5b505050506040513d601f19601f820116820180604052508101906109b89190611858565b8160400181815250506109c9610ef9565b73ffffffffffffffffffffffffffffffffffffffff166318160ddd6040518163ffffffff1660e01b815260040160206040518083038186803b158015610a0e57600080fd5b505afa158015610a22573d6000803e3d6000fd5b505050506040513d601f19601f82011682018060405250810190610a469190611858565b816080018181525050610a5761102b565b73ffffffffffffffffffffffffffffffffffffffff166318160ddd6040518163ffffffff1660e01b815260040160206040518083038186803b158015610a9c57600080fd5b505afa158015610ab0573d6000803e3d6000fd5b505050506040513d601f19601f82011682018060405250810190610ad49190611858565b8160a0018181525050610ae56110c4565b73ffffffffffffffffffffffffffffffffffffffff166318160ddd6040518163ffffffff1660e01b815260040160206040518083038186803b158015610b2a57600080fd5b505afa158015610b3e573d6000803e3d6000fd5b505050506040513d601f19601f82011682018060405250810190610b629190611858565b8160c0018181525050610b736110c4565b73ffffffffffffffffffffffffffffffffffffffff1663132c4feb6040518163ffffffff1660e01b815260040160206040518083038186803b158015610bb857600080fd5b505afa158015610bcc573d6000803e3d6000fd5b505050506040513d601f19601f82011682018060405250810190610bf09190611858565b8160e001818152505090565b6000734da97a8b831c345dbe6d16ff7432df2b7b776d9873ffffffffffffffffffffffffffffffffffffffff1663221e2e606040518163ffffffff1660e01b815260040160206040518083038186803b158015610c5857600080fd5b505afa158015610c6c573d6000803e3d6000fd5b505050506040513d601f19601f82011682018060405250810190610c9091906117c5565b905090565b6000734da97a8b831c345dbe6d16ff7432df2b7b776d9873ffffffffffffffffffffffffffffffffffffffff16638fe636836040518163ffffffff1660e01b815260040160206040518083038186803b158015610cf157600080fd5b505afa158015610d05573d6000803e3d6000fd5b505050506040513d601f19601f82011682018060405250810190610d2991906117c5565b905090565b6000734da97a8b831c345dbe6d16ff7432df2b7b776d9873ffffffffffffffffffffffffffffffffffffffff1663bc3ea0186040518163ffffffff1660e01b815260040160206040518083038186803b158015610d8a57600080fd5b505afa158015610d9e573d6000803e3d6000fd5b505050506040513d601f19601f82011682018060405250810190610dc291906117c5565b905090565b6000734da97a8b831c345dbe6d16ff7432df2b7b776d9873ffffffffffffffffffffffffffffffffffffffff16633ae3d9a46040518163ffffffff1660e01b815260040160206040518083038186803b158015610e2357600080fd5b505afa158015610e37573d6000803e3d6000fd5b505050506040513d601f19601f82011682018060405250810190610e5b91906117c5565b905090565b6000734da97a8b831c345dbe6d16ff7432df2b7b776d9873ffffffffffffffffffffffffffffffffffffffff166356593ea36040518163ffffffff1660e01b815260040160206040518083038186803b158015610ebc57600080fd5b505afa158015610ed0573d6000803e3d6000fd5b505050506040513d601f19601f82011682018060405250810190610ef491906117c5565b905090565b6000734da97a8b831c345dbe6d16ff7432df2b7b776d9873ffffffffffffffffffffffffffffffffffffffff1663b42165d06040518163ffffffff1660e01b815260040160206040518083038186803b158015610f5557600080fd5b505afa158015610f69573d6000803e3d6000fd5b505050506040513d601f19601f82011682018060405250810190610f8d91906117c5565b905090565b6000734da97a8b831c345dbe6d16ff7432df2b7b776d9873ffffffffffffffffffffffffffffffffffffffff1663017df3276040518163ffffffff1660e01b815260040160206040518083038186803b158015610fee57600080fd5b505afa158015611002573d6000803e3d6000fd5b505050506040513d601f19601f8201168201806040525081019061102691906117c5565b905090565b6000734da97a8b831c345dbe6d16ff7432df2b7b776d9873ffffffffffffffffffffffffffffffffffffffff1663d3815fb96040518163ffffffff1660e01b815260040160206040518083038186803b15801561108757600080fd5b505afa15801561109b573d6000803e3d6000fd5b505050506040513d601f19601f820116820180604052508101906110bf91906117c5565b905090565b6000734da97a8b831c345dbe6d16ff7432df2b7b776d9873ffffffffffffffffffffffffffffffffffffffff1663c431e83c6040518163ffffffff1660e01b815260040160206040518083038186803b15801561112057600080fd5b505afa158015611134573d6000803e3d6000fd5b505050506040513d601f19601f8201168201806040525081019061115891906117c5565b905090565b60008061116983611273565b905060005b815181101561126c5761117f6110c4565b73ffffffffffffffffffffffffffffffffffffffff1663d8fe76428383815181106111d3577f4e487b7100000000000000000000000000000000000000000000000000000000600052603260045260246000fd5b60200260200101516040518263ffffffff1660e01b81526004016111f79190611c00565b60c06040518083038186803b15801561120f57600080fd5b505afa158015611223573d6000803e3d6000fd5b505050506040513d601f19601f82011682018060405250810190611247919061182f565b60a00151836112569190611c88565b92506001816112659190611c88565b905061116e565b5050919050565b606061127d6110c4565b73ffffffffffffffffffffffffffffffffffffffff16637b48c3fd836040518263ffffffff1660e01b81526004016112b59190611b6f565b60006040518083038186803b1580156112cd57600080fd5b505afa1580156112e1573d6000803e3d6000fd5b505050506040513d6000823e3d601f19601f8201168201806040525081019061130a91906117ee565b9050919050565b60008061131d83611273565b905060005b815181101561141c57611333610bfc565b73ffffffffffffffffffffffffffffffffffffffff16637eb751c7838381518110611387577f4e487b7100000000000000000000000000000000000000000000000000000000600052603260045260246000fd5b60200260200101516040518263ffffffff1660e01b81526004016113ab9190611c00565b60206040518083038186803b1580156113c357600080fd5b505afa1580156113d7573d6000803e3d6000fd5b505050506040513d601f19601f820116820180604052508101906113fb9190611858565b836114069190611c88565b92506001816114159190611c88565b9050611322565b5050919050565b604051806101800160405280600073ffffffffffffffffffffffffffffffffffffffff168152602001600073ffffffffffffffffffffffffffffffffffffffff168152602001600073ffffffffffffffffffffffffffffffffffffffff168152602001600073ffffffffffffffffffffffffffffffffffffffff168152602001600073ffffffffffffffffffffffffffffffffffffffff168152602001600073ffffffffffffffffffffffffffffffffffffffff168152602001600073ffffffffffffffffffffffffffffffffffffffff168152602001600073ffffffffffffffffffffffffffffffffffffffff168152602001600073ffffffffffffffffffffffffffffffffffffffff168152602001600073ffffffffffffffffffffffffffffffffffffffff168152602001600073ffffffffffffffffffffffffffffffffffffffff168152602001600073ffffffffffffffffffffffffffffffffffffffff1681525090565b60405180610160016040528060008152602001600081526020016000815260200160008152602001600081526020016000815260200160008152602001600081526020016000815260200160008152602001600081525090565b60405180610100016040528060008152602001600081526020016000815260200160008152602001600081526020016000815260200160008152602001600081525090565b600061163e61163984611c40565b611c1b565b9050808382526020820190508285602086028201111561165d57600080fd5b60005b8581101561168d57816116738882611787565b845260208401935060208301925050600181019050611660565b5050509392505050565b6000813590506116a681611ded565b92915050565b6000815190506116bb81611ded565b92915050565b600082601f8301126116d257600080fd5b81516116e284826020860161162b565b91505092915050565b600060c082840312156116fd57600080fd5b61170760c0611c1b565b90506000611717848285016116ac565b600083015250602061172b84828501611787565b602083015250604061173f84828501611787565b604083015250606061175384828501611787565b606083015250608061176784828501611787565b60808301525060a061177b84828501611787565b60a08301525092915050565b60008151905061179681611e04565b92915050565b6000602082840312156117ae57600080fd5b60006117bc84828501611697565b91505092915050565b6000602082840312156117d757600080fd5b60006117e5848285016116ac565b91505092915050565b60006020828403121561180057600080fd5b600082015167ffffffffffffffff81111561181a57600080fd5b611826848285016116c1565b91505092915050565b600060c0828403121561184157600080fd5b600061184f848285016116eb565b91505092915050565b60006020828403121561186a57600080fd5b600061187884828501611787565b91505092915050565b61188a81611cde565b82525050565b61189981611cde565b82525050565b60006118aa82611c6c565b6118b48185611c77565b93506118c4818560208601611d1a565b6118cd81611ddc565b840191505092915050565b610180820160008201516118ef6000850182611881565b5060208201516119026020850182611881565b5060408201516119156040850182611881565b5060608201516119286060850182611881565b50608082015161193b6080850182611881565b5060a082015161194e60a0850182611881565b5060c082015161196160c0850182611881565b5060e082015161197460e0850182611881565b50610100820151611989610100850182611881565b5061012082015161199e610120850182611881565b506101408201516119b3610140850182611881565b506101608201516119c8610160850182611881565b50505050565b610100820160008201516119e56000850182611b51565b5060208201516119f86020850182611b51565b506040820151611a0b6040850182611b51565b506060820151611a1e6060850182611b51565b506080820151611a316080850182611b51565b5060a0820151611a4460a0850182611b51565b5060c0820151611a5760c0850182611b51565b5060e0820151611a6a60e0850182611b51565b50505050565b61016082016000820151611a876000850182611b51565b506020820151611a9a6020850182611b51565b506040820151611aad6040850182611b51565b506060820151611ac06060850182611b51565b506080820151611ad36080850182611b51565b5060a0820151611ae660a0850182611b51565b5060c0820151611af960c0850182611b51565b5060e0820151611b0c60e0850182611b51565b50610100820151611b21610100850182611b51565b50610120820151611b36610120850182611b51565b50610140820151611b4b610140850182611b51565b50505050565b611b5a81611d10565b82525050565b611b6981611d10565b82525050565b6000602082019050611b846000830184611890565b92915050565b60006020820190508181036000830152611ba4818461189f565b905092915050565b600061018082019050611bc260008301846118d8565b92915050565b600061010082019050611bde60008301846119ce565b92915050565b600061016082019050611bfa6000830184611a70565b92915050565b6000602082019050611c156000830184611b60565b92915050565b6000611c25611c36565b9050611c318282611d4d565b919050565b6000604051905090565b600067ffffffffffffffff821115611c5b57611c5a611dad565b5b602082029050602081019050919050565b600081519050919050565b600082825260208201905092915050565b6000611c9382611d10565b9150611c9e83611d10565b9250827fffffffffffffffffffffffffffffffffffffffffffffffffffffffffffffffff03821115611cd357611cd2611d7e565b5b828201905092915050565b6000611ce982611cf0565b9050919050565b600073ffffffffffffffffffffffffffffffffffffffff82169050919050565b6000819050919050565b60005b83811015611d38578082015181840152602081019050611d1d565b83811115611d47576000848401525b50505050565b611d5682611ddc565b810181811067ffffffffffffffff82111715611d7557611d74611dad565b5b80604052505050565b7f4e487b7100000000000000000000000000000000000000000000000000000000600052601160045260246000fd5b7f4e487b7100000000000000000000000000000000000000000000000000000000600052604160045260246000fd5b6000601f19601f8301169050919050565b611df681611cde565b8114611e0157600080fd5b50565b611e0d81611d10565b8114611e1857600080fd5b5056fea26469706673582212209541af51c8ff47889eaa90fa01f4a85a9d754ab4bd2090ed95b0e06bf13ea8b764736f6c63430008040033",
  "devdoc": {
    "kind": "dev",
    "methods": {},
    "version": 1
  },
  "userdoc": {
    "kind": "user",
    "methods": {},
    "version": 1
  },
  "storageLayout": {
    "storage": [],
    "types": null
  }
}